{
  "contractName": "TroisPhrases",
  "abi": [
    {
      "constant": true,
      "inputs": [
        {
          "name": "",
          "type": "uint256"
        }
      ],
      "name": "definitions",
      "outputs": [
        {
          "name": "user",
          "type": "address"
        },
        {
          "name": "definition",
          "type": "string"
        },
        {
          "name": "defined",
          "type": "string"
        },
        {
          "name": "votes",
          "type": "uint256"
        }
      ],
      "payable": false,
      "stateMutability": "view",
      "type": "function"
    },
    {
      "constant": false,
      "inputs": [
        {
          "name": "definition",
          "type": "string"
        },
        {
          "name": "defined",
          "type": "string"
        }
      ],
      "name": "createDefinition",
      "outputs": [],
      "payable": false,
      "stateMutability": "nonpayable",
      "type": "function"
    },
    {
      "constant": true,
      "inputs": [],
      "name": "getDefinitionsLength",
      "outputs": [
        {
          "name": "",
          "type": "uint256"
        }
      ],
      "payable": false,
      "stateMutability": "view",
      "type": "function"
    },
    {
      "constant": false,
      "inputs": [
        {
          "name": "i",
          "type": "uint256"
        }
      ],
      "name": "vote",
      "outputs": [],
      "payable": false,
      "stateMutability": "nonpayable",
      "type": "function"
    },
    {
      "constant": false,
      "inputs": [
        {
          "name": "index",
          "type": "uint256"
        }
      ],
      "name": "deleteDefinition",
      "outputs": [],
      "payable": false,
      "stateMutability": "nonpayable",
      "type": "function"
    }
  ],
  "bytecode": "0x608060405234801561001057600080fd5b50610b8e806100206000396000f3fe608060405234801561001057600080fd5b50600436106100575760003560e01c80630121b93f1461005c5780631a7decb41461008a578063810396f4146100b85780638294f3fc146100d6578063fd51fc4c14610228575b600080fd5b6100886004803603602081101561007257600080fd5b8101908080359060200190929190505050610375565b005b6100b6600480360360208110156100a057600080fd5b81019080803590602001909291905050506103a5565b005b6100c06105ff565b6040518082815260200191505060405180910390f35b610226600480360360408110156100ec57600080fd5b810190808035906020019064010000000081111561010957600080fd5b82018360208201111561011b57600080fd5b8035906020019184600183028401116401000000008311171561013d57600080fd5b91908080601f016020809104026020016040519081016040528093929190818152602001838380828437600081840152601f19601f820116905080830192505050505050509192919290803590602001906401000000008111156101a057600080fd5b8201836020820111156101b257600080fd5b803590602001918460018302840111640100000000831117156101d457600080fd5b91908080601f016020809104026020016040519081016040528093929190818152602001838380828437600081840152601f19601f82011690508083019250505050505050919291929050505061060b565b005b6102546004803603602081101561023e57600080fd5b810190808035906020019092919050505061070e565b604051808573ffffffffffffffffffffffffffffffffffffffff1673ffffffffffffffffffffffffffffffffffffffff1681526020018060200180602001848152602001838103835286818151815260200191508051906020019080838360005b838110156102d05780820151818401526020810190506102b5565b50505050905090810190601f1680156102fd5780820380516001836020036101000a031916815260200191505b50838103825285818151815260200191508051906020019080838360005b8381101561033657808201518184015260208101905061031b565b50505050905090810190601f1680156103635780820380516001836020036101000a031916815260200191505b50965050505050505060405180910390f35b60016000828154811061038457fe5b90600052602060002090600402016003016000828254019250508190555050565b600080549050811115610403576040517f08c379a000000000000000000000000000000000000000000000000000000000815260040180806020018281038252602c815260200180610aee602c913960400191505060405180910390fd5b3373ffffffffffffffffffffffffffffffffffffffff166000828154811061042757fe5b906000526020600020906004020160000160009054906101000a900473ffffffffffffffffffffffffffffffffffffffff1673ffffffffffffffffffffffffffffffffffffffff16146104c5576040517f08c379a0000000000000000000000000000000000000000000000000000000008152600401808060200182810382526049815260200180610b1a6049913960600191505060405180910390fd5b60008190505b6001600080549050038110156105e557600060018201815481106104eb57fe5b90600052602060002090600402016000828154811061050657fe5b90600052602060002090600402016000820160009054906101000a900473ffffffffffffffffffffffffffffffffffffffff168160000160006101000a81548173ffffffffffffffffffffffffffffffffffffffff021916908373ffffffffffffffffffffffffffffffffffffffff160217905550600182018160010190805460018160011615610100020316600290046105a292919061089b565b50600282018160020190805460018160011615610100020316600290046105ca92919061089b565b506003820154816003015590505080806001019150506104cb565b5060008054809190600190036105fb9190610922565b5050565b60008080549050905090565b610613610954565b60405180608001604052803373ffffffffffffffffffffffffffffffffffffffff168152602001848152602001838152602001600081525090506000819080600181540180825580915050906001820390600052602060002090600402016000909192909190915060008201518160000160006101000a81548173ffffffffffffffffffffffffffffffffffffffff021916908373ffffffffffffffffffffffffffffffffffffffff16021790555060208201518160010190805190602001906106de929190610992565b5060408201518160020190805190602001906106fb929190610992565b5060608201518160030155505050505050565b6000818154811061071b57fe5b90600052602060002090600402016000915090508060000160009054906101000a900473ffffffffffffffffffffffffffffffffffffffff1690806001018054600181600116156101000203166002900480601f0160208091040260200160405190810160405280929190818152602001828054600181600116156101000203166002900480156107ed5780601f106107c2576101008083540402835291602001916107ed565b820191906000526020600020905b8154815290600101906020018083116107d057829003601f168201915b505050505090806002018054600181600116156101000203166002900480601f01602080910402602001604051908101604052809291908181526020018280546001816001161561010002031660029004801561088b5780601f106108605761010080835404028352916020019161088b565b820191906000526020600020905b81548152906001019060200180831161086e57829003601f168201915b5050505050908060030154905084565b828054600181600116156101000203166002900490600052602060002090601f016020900481019282601f106108d45780548555610911565b8280016001018555821561091157600052602060002091601f016020900482015b828111156109105782548255916001019190600101906108f5565b5b50905061091e9190610a12565b5090565b81548183558181111561094f5760040281600402836000526020600020918201910161094e9190610a37565b5b505050565b6040518060800160405280600073ffffffffffffffffffffffffffffffffffffffff1681526020016060815260200160608152602001600081525090565b828054600181600116156101000203166002900490600052602060002090601f016020900481019282601f106109d357805160ff1916838001178555610a01565b82800160010185558215610a01579182015b82811115610a005782518255916020019190600101906109e5565b5b509050610a0e9190610a12565b5090565b610a3491905b80821115610a30576000816000905550600101610a18565b5090565b90565b610aa291905b80821115610a9e57600080820160006101000a81549073ffffffffffffffffffffffffffffffffffffffff0219169055600182016000610a7d9190610aa5565b600282016000610a8d9190610aa5565b600382016000905550600401610a3d565b5090565b90565b50805460018160011615610100020316600290046000825580601f10610acb5750610aea565b601f016020900490600052602060002090810190610ae99190610a12565b5b5056fe636574746520646566696e6974696f6e206e6520666967757265207061732064616e73206c61206c69737465766f757320646576657a2065747265206c6520637265617465757220646520636574746520646566696e6974696f6e20706f757220706f75766f6972206c61207375707072696d6572a165627a7a723058203e2d8dcea120a5d4818ebdca5cdde7c5e3e5aa4ac26609cde807128ed446276f0029",
  "source": "pragma solidity ^0.5.0;\r\n\r\nimport \"./Sents.sol\";\r\n\r\ncontract TroisPhrases {\r\n\r\n  struct Definition{\r\n    address user;\r\n    string definition;\r\n    string defined;\r\n    uint256 votes;\r\n  }\r\n\r\n  Definition[] public definitions;\r\n\r\n\r\n\r\n  function createDefinition(string memory definition, string memory defined) public {\r\n    Definition memory newDefinition = Definition(msg.sender, definition, defined, 0);\r\n    definitions.push(newDefinition);\r\n  }\r\n\r\n  function getDefinitionsLength() public view returns(uint256){\r\n      return definitions.length;\r\n  }\r\n\r\n  function vote(uint i) public {\r\n    definitions[i].votes += 1;\r\n  }\r\n\r\n function deleteDefinition(uint index) public {\r\n  require(index <= definitions.length,\"cette definition ne figure pas dans la liste\");\r\n  require(definitions[index].user == msg.sender,\"vous devez etre le createur de cette definition pour pouvoir la supprimer\");\r\n\r\n  for (uint i = index; i<definitions.length-1; i++){\r\n    definitions[i] = definitions[i+1];\r\n  }\r\n  definitions.length--;\r\n  }\r\n}\r\n",
  "sourcePath": "C:/Users/Satanus/Documents/GitHub/3Phrases/contracts/TroisPhrases.sol",
  "compiler": {
    "name": "solc",
    "version": "0.5.8+commit.23d335f2.Emscripten.clang"
  },
  "schemaVersion": "3.0.16",
  "updatedAt": "2019-10-17T09:45:44.929Z",
  "devdoc": {
    "methods": {}
  },
  "userdoc": {
    "methods": {}
  }
}