{
  "contractName": "TroisPhrases",
  "abi": [
    {
      "constant": true,
      "inputs": [
        {
          "name": "",
          "type": "uint256"
        }
      ],
      "name": "definitions",
      "outputs": [
        {
          "name": "user",
          "type": "address"
        },
        {
          "name": "definition",
          "type": "string"
        },
        {
          "name": "defined",
          "type": "string"
        },
        {
          "name": "votes",
          "type": "uint256"
        }
      ],
      "payable": false,
      "stateMutability": "view",
      "type": "function"
    },
    {
      "constant": false,
      "inputs": [
        {
          "name": "definition",
          "type": "string"
        },
        {
          "name": "defined",
          "type": "string"
        }
      ],
      "name": "createDefinition",
      "outputs": [],
      "payable": false,
      "stateMutability": "nonpayable",
      "type": "function"
    },
    {
      "constant": true,
      "inputs": [],
      "name": "getDefinitionsLength",
      "outputs": [
        {
          "name": "",
          "type": "uint256"
        }
      ],
      "payable": false,
      "stateMutability": "view",
      "type": "function"
    },
    {
      "constant": false,
      "inputs": [
        {
          "name": "i",
          "type": "uint256"
        }
      ],
      "name": "vote",
      "outputs": [],
      "payable": false,
      "stateMutability": "nonpayable",
      "type": "function"
    }
  ],
  "bytecode": "0x608060405234801561001057600080fd5b50610717806100206000396000f3fe608060405234801561001057600080fd5b506004361061004c5760003560e01c80630121b93f14610051578063810396f41461007f5780638294f3fc1461009d578063fd51fc4c146101ef575b600080fd5b61007d6004803603602081101561006757600080fd5b810190808035906020019092919050505061033c565b005b61008761036c565b6040518082815260200191505060405180910390f35b6101ed600480360360408110156100b357600080fd5b81019080803590602001906401000000008111156100d057600080fd5b8201836020820111156100e257600080fd5b8035906020019184600183028401116401000000008311171561010457600080fd5b91908080601f016020809104026020016040519081016040528093929190818152602001838380828437600081840152601f19601f8201169050808301925050505050505091929192908035906020019064010000000081111561016757600080fd5b82018360208201111561017957600080fd5b8035906020019184600183028401116401000000008311171561019b57600080fd5b91908080601f016020809104026020016040519081016040528093929190818152602001838380828437600081840152601f19601f820116905080830192505050505050509192919290505050610378565b005b61021b6004803603602081101561020557600080fd5b810190808035906020019092919050505061047b565b604051808573ffffffffffffffffffffffffffffffffffffffff1673ffffffffffffffffffffffffffffffffffffffff1681526020018060200180602001848152602001838103835286818151815260200191508051906020019080838360005b8381101561029757808201518184015260208101905061027c565b50505050905090810190601f1680156102c45780820380516001836020036101000a031916815260200191505b50838103825285818151815260200191508051906020019080838360005b838110156102fd5780820151818401526020810190506102e2565b50505050905090810190601f16801561032a5780820380516001836020036101000a031916815260200191505b50965050505050505060405180910390f35b60016000828154811061034b57fe5b90600052602060002090600402016003016000828254019250508190555050565b60008080549050905090565b610380610608565b60405180608001604052803373ffffffffffffffffffffffffffffffffffffffff168152602001848152602001838152602001600081525090506000819080600181540180825580915050906001820390600052602060002090600402016000909192909190915060008201518160000160006101000a81548173ffffffffffffffffffffffffffffffffffffffff021916908373ffffffffffffffffffffffffffffffffffffffff160217905550602082015181600101908051906020019061044b929190610646565b506040820151816002019080519060200190610468929190610646565b5060608201518160030155505050505050565b6000818154811061048857fe5b90600052602060002090600402016000915090508060000160009054906101000a900473ffffffffffffffffffffffffffffffffffffffff1690806001018054600181600116156101000203166002900480601f01602080910402602001604051908101604052809291908181526020018280546001816001161561010002031660029004801561055a5780601f1061052f5761010080835404028352916020019161055a565b820191906000526020600020905b81548152906001019060200180831161053d57829003601f168201915b505050505090806002018054600181600116156101000203166002900480601f0160208091040260200160405190810160405280929190818152602001828054600181600116156101000203166002900480156105f85780601f106105cd576101008083540402835291602001916105f8565b820191906000526020600020905b8154815290600101906020018083116105db57829003601f168201915b5050505050908060030154905084565b6040518060800160405280600073ffffffffffffffffffffffffffffffffffffffff1681526020016060815260200160608152602001600081525090565b828054600181600116156101000203166002900490600052602060002090601f016020900481019282601f1061068757805160ff19168380011785556106b5565b828001600101855582156106b5579182015b828111156106b4578251825591602001919060010190610699565b5b5090506106c291906106c6565b5090565b6106e891905b808211156106e45760008160009055506001016106cc565b5090565b9056fea165627a7a72305820e75bf1d2e9a173f719f64b092b1a98256c3db7309d11816e69bb7a179d00a7850029",
  "source": "pragma solidity ^0.5.0;\r\n\r\ncontract TroisPhrases {\r\n\r\n  struct Definition{\r\n    address user;\r\n    string definition;\r\n    string defined;\r\n    uint256 votes;\r\n  }\r\n\r\n  Definition[] public definitions;\r\n\r\n  function createDefinition(string memory definition, string memory defined) public {\r\n    Definition memory newDefinition = Definition(msg.sender, definition , defined, 0);\r\n    definitions.push(newDefinition);\r\n  }\r\n\r\n  function getDefinitionsLength() public view returns(uint256){\r\n      return definitions.length;\r\n  }\r\n\r\n  function vote(uint i) public {\r\n    definitions[i].votes+=1;\r\n  }\r\n\r\n}\r\n",
  "sourcePath": "C:/Users/Satanus/Documents/projet_BC/3phrases/contracts/TroisPhrases.sol",
  "compiler": {
    "name": "solc",
    "version": "0.5.8+commit.23d335f2.Emscripten.clang"
  },
  "schemaVersion": "3.0.16",
  "updatedAt": "2019-10-08T22:09:49.059Z",
  "devdoc": {
    "methods": {}
  },
  "userdoc": {
    "methods": {}
  }
}